{
  "contractName": "Deed",
  "abi": [
    {
      "constant": true,
      "inputs": [],
      "name": "time",
      "outputs": [
        {
          "name": "",
          "type": "uint256"
        }
      ],
      "payable": false,
      "stateMutability": "view",
      "type": "function",
      "signature": "0x16ada547"
    },
    {
      "constant": true,
      "inputs": [],
      "name": "sender",
      "outputs": [
        {
          "name": "",
          "type": "address"
        }
      ],
      "payable": false,
      "stateMutability": "view",
      "type": "function",
      "signature": "0x67e404ce"
    },
    {
      "constant": true,
      "inputs": [],
      "name": "reciver",
      "outputs": [
        {
          "name": "",
          "type": "address"
        }
      ],
      "payable": false,
      "stateMutability": "view",
      "type": "function",
      "signature": "0xa4bbfb74"
    },
    {
      "inputs": [
        {
          "name": "_sender",
          "type": "address"
        },
        {
          "name": "_reciver",
          "type": "address"
        },
        {
          "name": "_time",
          "type": "uint256"
        }
      ],
      "payable": true,
      "stateMutability": "payable",
      "type": "constructor",
      "signature": "constructor"
    },
    {
      "constant": false,
      "inputs": [],
      "name": "withdraw",
      "outputs": [],
      "payable": false,
      "stateMutability": "nonpayable",
      "type": "function",
      "signature": "0x3ccfd60b"
    }
  ],
  "bytecode": "0x60806040526040516060806103178339810180604052606081101561002357600080fd5b508051602082015160409092015160008054600160a060020a03938416600160a060020a031991821617909155600180549390941692169190911790915542016002556102a2806100756000396000f3fe6080604052600436106100615763ffffffff7c010000000000000000000000000000000000000000000000000000000060003504166316ada54781146100665780633ccfd60b1461008d57806367e404ce146100a4578063a4bbfb74146100e2575b600080fd5b34801561007257600080fd5b5061007b6100f7565b60408051918252519081900360200190f35b34801561009957600080fd5b506100a26100fd565b005b3480156100b057600080fd5b506100b961023e565b6040805173ffffffffffffffffffffffffffffffffffffffff9092168252519081900360200190f35b3480156100ee57600080fd5b506100b961025a565b60025481565b60005473ffffffffffffffffffffffffffffffffffffffff16331461018357604080517f08c379a000000000000000000000000000000000000000000000000000000000815260206004820152601460248201527f6f6e6c7920617574686f72697a65642075736572000000000000000000000000604482015290519081900360640190fd5b6002544210156101f457604080517f08c379a000000000000000000000000000000000000000000000000000000000815260206004820152601560248201527f746f6f206561726c7920746f2077697468647261770000000000000000000000604482015290519081900360640190fd5b60015460405173ffffffffffffffffffffffffffffffffffffffff90911690303180156108fc02916000818181858888f1935050505015801561023b573d6000803e3d6000fd5b50565b60005473ffffffffffffffffffffffffffffffffffffffff1681565b60015473ffffffffffffffffffffffffffffffffffffffff168156fea165627a7a723058204e1db452f56ae5c998d3095bcb1b302f7cc9c0fe5d98d2009cbce9f15e0968a10029",
  "source": "// SPDX-License-Identifier: MIT\r\npragma solidity >=0.4.22 <0.9.0;\r\n\r\ncontract Deed{\r\n\taddress public sender;\r\n\taddress payable public reciver;\r\n\tuint public time;\r\n\r\n\r\n\tconstructor(address _sender, address payable _reciver, uint _time) payable public {\r\n\t\tsender = _sender;\r\n\t\treciver = _reciver;\r\n\t\ttime = block.timestamp + _time;\r\n\t}\r\n\r\n\r\n\tfunction withdraw() public {\r\n\t\trequire(sender == msg.sender, \"only authorized user\");\r\n\t\trequire(block.timestamp >= time, \"too early to withdraw\");\r\n\t\treciver.transfer(address(this).balance);\r\n\t}\r\n\r\n}",
  "sourcePath": "C:/Users/dpake/OneDrive/Desktop/Project/Block chain/Dapps 30/Day8 - Deed/contracts/Deed.sol",
  "compiler": {
    "name": "solc",
    "version": "0.5.0+commit.1d4f565a.Emscripten.clang"
  },
  "schemaVersion": "3.0.1",
  "updatedAt": "2022-06-28T03:32:13.016Z",
  "devdoc": {
    "methods": {}
  },
  "userdoc": {
    "methods": {}
  }
}