{
  "contractName": "Deed",
  "abi": [
    {
      "constant": true,
      "inputs": [],
      "name": "time",
      "outputs": [
        {
          "name": "",
          "type": "uint256"
        }
      ],
      "payable": false,
      "stateMutability": "view",
      "type": "function",
      "signature": "0x16ada547"
    },
    {
      "constant": true,
      "inputs": [],
      "name": "sender",
      "outputs": [
        {
          "name": "",
          "type": "address"
        }
      ],
      "payable": false,
      "stateMutability": "view",
      "type": "function",
      "signature": "0x67e404ce"
    },
    {
      "constant": true,
      "inputs": [],
      "name": "reciver",
      "outputs": [
        {
          "name": "",
          "type": "address"
        }
      ],
      "payable": false,
      "stateMutability": "view",
      "type": "function",
      "signature": "0xa4bbfb74"
    },
    {
      "inputs": [
        {
          "name": "_sender",
          "type": "address"
        },
        {
          "name": "_reciver",
          "type": "address"
        },
        {
          "name": "_time",
          "type": "uint256"
        }
      ],
      "payable": false,
      "stateMutability": "nonpayable",
      "type": "constructor",
      "signature": "constructor"
    },
    {
      "constant": false,
      "inputs": [],
      "name": "withdraw",
      "outputs": [],
      "payable": false,
      "stateMutability": "nonpayable",
      "type": "function",
      "signature": "0x3ccfd60b"
    }
  ],
  "bytecode": "0x608060405234801561001057600080fd5b506040516060806104858339810180604052606081101561003057600080fd5b81019080805190602001909291908051906020019092919080519060200190929190505050826000806101000a81548173ffffffffffffffffffffffffffffffffffffffff021916908373ffffffffffffffffffffffffffffffffffffffff16021790555081600160006101000a81548173ffffffffffffffffffffffffffffffffffffffff021916908373ffffffffffffffffffffffffffffffffffffffff160217905550804201600281905550505050610394806100f16000396000f3fe608060405260043610610062576000357c0100000000000000000000000000000000000000000000000000000000900463ffffffff16806316ada547146100675780633ccfd60b1461009257806367e404ce146100a9578063a4bbfb7414610100575b600080fd5b34801561007357600080fd5b5061007c610157565b6040518082815260200191505060405180910390f35b34801561009e57600080fd5b506100a761015d565b005b3480156100b557600080fd5b506100be61031d565b604051808273ffffffffffffffffffffffffffffffffffffffff1673ffffffffffffffffffffffffffffffffffffffff16815260200191505060405180910390f35b34801561010c57600080fd5b50610115610342565b604051808273ffffffffffffffffffffffffffffffffffffffff1673ffffffffffffffffffffffffffffffffffffffff16815260200191505060405180910390f35b60025481565b3373ffffffffffffffffffffffffffffffffffffffff166000809054906101000a900473ffffffffffffffffffffffffffffffffffffffff1673ffffffffffffffffffffffffffffffffffffffff16141515610221576040517f08c379a00000000000000000000000000000000000000000000000000000000081526004018080602001828103825260148152602001807f6f6e6c7920617574686f72697a6564207573657200000000000000000000000081525060200191505060405180910390fd5b600254421015151561029b576040517f08c379a00000000000000000000000000000000000000000000000000000000081526004018080602001828103825260158152602001807f746f6f206561726c7920746f207769746864726177000000000000000000000081525060200191505060405180910390fd5b600160009054906101000a900473ffffffffffffffffffffffffffffffffffffffff1673ffffffffffffffffffffffffffffffffffffffff166108fc3073ffffffffffffffffffffffffffffffffffffffff16319081150290604051600060405180830381858888f1935050505015801561031a573d6000803e3d6000fd5b50565b6000809054906101000a900473ffffffffffffffffffffffffffffffffffffffff1681565b600160009054906101000a900473ffffffffffffffffffffffffffffffffffffffff168156fea165627a7a723058207e260f607af7f71fd0f5d7198806035b58ed83067255b45fa6fca554b55a91460029",
  "source": "// SPDX-License-Identifier: MIT\r\npragma solidity >=0.4.22 <0.9.0;\r\n\r\ncontract Deed{\r\n\taddress public sender;\r\n\taddress payable public reciver;\r\n\tuint public time;\r\n\r\n\r\n\tconstructor(address _sender, address payable _reciver, uint _time) public{\r\n\t\tsender = _sender;\r\n\t\treciver = _reciver;\r\n\t\ttime = now + _time;\r\n\t}\r\n\r\n\r\n\tfunction withdraw() public {\r\n\t\trequire(sender == msg.sender, \"only authorized user\");\r\n\t\trequire(now >= time, \"too early to withdraw\");\r\n\t\treciver.transfer(address(this).balance);\r\n\t}\r\n\r\n}",
  "sourcePath": "C:/Users/dpake/OneDrive/Desktop/Project/Block chain/Dapps 30/Day8 - Deed/contracts/Deed.sol",
  "compiler": {
    "name": "solc",
    "version": "0.5.0+commit.1d4f565a.Emscripten.clang"
  },
  "schemaVersion": "3.0.1",
  "updatedAt": "2022-06-28T02:22:26.892Z",
  "devdoc": {
    "methods": {}
  },
  "userdoc": {
    "methods": {}
  }
}